{
  "contractName": "NFTTrader",
  "abi": [
    {
      "inputs": [
        {
          "internalType": "address",
          "name": "",
          "type": "address"
        }
      ],
      "name": "balances",
      "outputs": [
        {
          "internalType": "uint256",
          "name": "",
          "type": "uint256"
        }
      ],
      "stateMutability": "view",
      "type": "function",
      "constant": true
    },
    {
      "inputs": [
        {
          "internalType": "address",
          "name": "",
          "type": "address"
        },
        {
          "internalType": "uint256",
          "name": "",
          "type": "uint256"
        }
      ],
      "name": "listings",
      "outputs": [
        {
          "internalType": "uint256",
          "name": "price",
          "type": "uint256"
        },
        {
          "internalType": "address",
          "name": "seller",
          "type": "address"
        }
      ],
      "stateMutability": "view",
      "type": "function",
      "constant": true
    },
    {
      "inputs": [
        {
          "internalType": "uint256",
          "name": "price",
          "type": "uint256"
        },
        {
          "internalType": "address",
          "name": "constractAddr",
          "type": "address"
        },
        {
          "internalType": "uint256",
          "name": "tokenId",
          "type": "uint256"
        }
      ],
      "name": "addListing",
      "outputs": [],
      "stateMutability": "nonpayable",
      "type": "function"
    },
    {
      "inputs": [
        {
          "internalType": "address",
          "name": "constractAddr",
          "type": "address"
        },
        {
          "internalType": "uint256",
          "name": "tokenId",
          "type": "uint256"
        },
        {
          "internalType": "uint256",
          "name": "amount",
          "type": "uint256"
        }
      ],
      "name": "purchase",
      "outputs": [],
      "stateMutability": "payable",
      "type": "function",
      "payable": true
    },
    {
      "inputs": [
        {
          "internalType": "uint256",
          "name": "amount",
          "type": "uint256"
        },
        {
          "internalType": "address payable",
          "name": "destAddr",
          "type": "address"
        }
      ],
      "name": "withdraw",
      "outputs": [],
      "stateMutability": "nonpayable",
      "type": "function"
    }
  ],
  "bytecode": "0x608060405234801561001057600080fd5b506107c8806100206000396000f3fe6080604052600436106100485760003560e01c806207df301461004d578062f714ce1461008457806327e235e3146100a657806380abbe57146100d357806398968f15146100f3575b600080fd5b34801561005957600080fd5b5061006d6100683660046104c7565b610106565b60405161007b9291906106ff565b60405180910390f35b34801561009057600080fd5b506100a461009f36600461055e565b610130565b005b3480156100b257600080fd5b506100c66100c13660046104a4565b6101c7565b60405161007b91906106f6565b3480156100df57600080fd5b506100a46100ee36600461058d565b6101d9565b6100a46101013660046104f2565b610367565b6000602081815292815260408082209093529081522080546001909101546001600160a01b031682565b336000908152600160205260409020548211156101685760405162461bcd60e51b815260040161015f906106ca565b60405180910390fd5b6040516001600160a01b0382169083156108fc029084906000818181858888f1935050505015801561019e573d6000803e3d6000fd5b5033600090815260016020526040812080548492906101be90849061074d565b90915550505050565b60016020526000908152604090205481565b6040516370a0823160e01b815282906000906001600160a01b038316906370a082319061020a9033906004016105c4565b60206040518083038186803b15801561022257600080fd5b505afa158015610236573d6000803e3d6000fd5b505050506040513d601f19601f8201168201806040525081019061025a9190610546565b116102775760405162461bcd60e51b815260040161015f90610693565b60405163e985e9c560e01b81526001600160a01b0382169063e985e9c5906102a590339030906004016105d8565b60206040518083038186803b1580156102bd57600080fd5b505afa1580156102d1573d6000803e3d6000fd5b505050506040513d601f19601f820116820180604052508101906102f59190610526565b6103115760405162461bcd60e51b815260040161015f9061065c565b506040805180820182529384523360208086019182526001600160a01b03948516600090815280825283812094815293905291209251835551600190920180546001600160a01b03191692909116919091179055565b6001600160a01b038084166000908152602081815260408083208684528252918290208251808401909352805480845260019091015490931690820152906103b090839061072e565b3410156103cf5760405162461bcd60e51b815260040161015f90610625565b6020808201516001600160a01b0316600090815260019091526040812080543492906103fc908490610716565b90915550506020810151604051635c46a7ef60e11b815285916001600160a01b0383169163b88d4fde9161043691339089906004016105f2565b600060405180830381600087803b15801561045057600080fd5b505af1158015610464573d6000803e3d6000fd5b5050506001600160a01b0390951660009081526020818152604080832096835295905293842093845550505060010180546001600160a01b031916905550565b6000602082840312156104b5578081fd5b81356104c08161077a565b9392505050565b600080604083850312156104d9578081fd5b82356104e48161077a565b946020939093013593505050565b600080600060608486031215610506578081fd5b83356105118161077a565b95602085013595506040909401359392505050565b600060208284031215610537578081fd5b815180151581146104c0578182fd5b600060208284031215610557578081fd5b5051919050565b60008060408385031215610570578182fd5b8235915060208301356105828161077a565b809150509250929050565b6000806000606084860312156105a1578283fd5b8335925060208401356105b38161077a565b929592945050506040919091013590565b6001600160a01b0391909116815260200190565b6001600160a01b0392831681529116602082015260400190565b6001600160a01b039384168152919092166020820152604081019190915260806060820181905260009082015260a00190565b60208082526017908201527f696e73756666696369656e742066756e64732073656e64000000000000000000604082015260600190565b60208082526018908201527f436f6e7472616374206d75737420626520617070726f76650000000000000000604082015260600190565b6020808252601b908201527f63616c6c6572206d757374206f776e20676976656e20746f6b656e0000000000604082015260600190565b602080825260129082015271696e73756666696369656e742066756e647360701b604082015260600190565b90815260200190565b9182526001600160a01b0316602082015260400190565b6000821982111561072957610729610764565b500190565b600081600019048311821515161561074857610748610764565b500290565b60008282101561075f5761075f610764565b500390565b634e487b7160e01b600052601160045260246000fd5b6001600160a01b038116811461078f57600080fd5b5056fea26469706673582212208249f004116b6dc9f5c1c4d5edbcac1329069574f1b95cbafba6780a906c85cc64736f6c63430008010033",
  "immutableReferences": {},
  "source": "// SPDX-License-Identifier: MIT\n\npragma solidity ^0.8.1;\n\n\nimport \"@openzeppelin/contracts/token/ERC721/ERC721.sol\";\nimport \"@openzeppelin/contracts/access/Ownable.sol\";\n\ncontract NFTTrader{\n\n    mapping(address => mapping(uint256 => listing)) public listings;\n    mapping(address => uint256) public balances;\n\n    struct listing{\n        uint256 price;\n        address seller;\n    }\n\n    function addListing(uint256 price, address constractAddr, uint256 tokenId) public{\n        ERC721 token = ERC721(constractAddr);\n        require(token.balanceOf(msg.sender)>0, \"caller must own given token\");\n        require(token.isApprovedForAll(msg.sender, address(this)),\"Contract must be approve\");\n\n        listings[constractAddr][tokenId] = listing(price, msg.sender);\n    }\n\n    function purchase(address constractAddr, uint256 tokenId, uint256 amount) public payable{\n        listing memory item = listings[constractAddr][tokenId];\n        require(msg.value >= item.price*amount, \"insufficient funds send\");\n        balances[item.seller] += msg.value;\n        \n        ERC721 token = ERC721(constractAddr);\n        token.safeTransferFrom(item.seller, msg.sender, tokenId, \"\");\n        delete listings[constractAddr][tokenId];\n    }\n\n    function withdraw(uint256 amount, address payable destAddr) public {\n        require(amount <= balances[msg.sender], \"insufficient funds\");\n\n        destAddr.transfer(amount);\n        balances[msg.sender] -= amount;\n    }\n}",
  "sourcePath": "/home/khangnt-leo/GR1-Project/nft-generate/nft_game/contracts/NFTTracder.sol",
  "compiler": {
    "name": "solc",
    "version": "0.8.1+commit.df193b15.Emscripten.clang"
  },
  "schemaVersion": "3.4.8",
  "updatedAt": "2022-08-14T20:12:19.630Z",
  "networkType": "ethereum",
  "devdoc": {
    "kind": "dev",
    "methods": {},
    "version": 1
  },
  "userdoc": {
    "kind": "user",
    "methods": {},
    "version": 1
  }
}